:100000000C942A000C9447000C9447000C94470071
:100010000C9447000C9447000C9447000C94470044
:100020000C9447000C9447000C9447000C94470034
:100030000C9447000C9447000C9447000C94470024
:100040000C9447000C9447000C9447000C94470014
:100050000C94470011241FBECFE5D8E0DEBFCDBF12
:1000600010E0A0E6B0E0E2EBF1E002C005900D92F6
:10007000A836B107D9F720E0A8E6B0E001C01D928C
:10008000AC36B207E1F70E9449000C94D7000C94FB
:1000900000008FEF81BB1ABA19E0C4E6D0E076E029
:1000A000A6E6B0E021E030E005E089B3482F4170DA
:1000B00050E089B3827090E0622FE0916A00F09185
:1000C0006B00E417F50709F0632F662391F0622FA8
:1000D000E0916800F0916900E817F90709F0632FD3
:1000E000662339F012BAE7EAF1E63197F1F700C07A
:1000F0000000622FE0916200F0916300E417F507C1
:1001000009F0632F6623A1F0622FE0916800F0915F
:100110006900E817F90709F0632F662349F012BB5D
:10012000EFE4F3EC3197F1F700C00000688162BBA7
:10013000622FE0916A00F0916B00E417F50709F077
:10014000632F6623A1F0622FE0916000F0916100BF
:10015000E817F90709F0632F662349F072BBEFE453
:10016000F3EC3197F1F700C000006C9162BB622F95
:10017000E0916200F0916300E417F50709F0632F46
:10018000662309F492CF622FE0916000F091610044
:10019000E817F90709F0632F662309F486CF02BB3D
:1001A00087EA91E60197F1F700C000007ECFF8944E
:0201B000FFCF7F
:0801B200020001000500050038
:00000001FF
